:020000040800F2
:10000000082400209D010008A5010008A7010008A0
:1000100000000000000000000000000000000000E0
:10002000000000000000000000000000A90100081E
:100030000000000000000000AB010008AD01000856
:10004000AF010008AF010008AF010008AF010008D0
:10005000AF010008AF010008AF010008AF010008C0
:10006000AF010008AF010008AF010008AF010008B0
:10007000AF010008AF010008AF010008AF010008A0
:10008000AF010008FD160008AF010008AF0100082D
:10009000AF010008AF010008AF010008AF01000880
:1000A000AF010008AF010008AF010008AF01000870
:1000B000AF010008AF010008AF01000819170008E0
:1000C00000F002F800F03EF80CA030C80838241800
:1000D0002D18A246671EAB4654465D46AC4201D180
:1000E00000F030F87E460F3E0FCCB6460126334274
:1000F00000D0FB1AA246AB46334318474423000006
:1001000064230000103A02D378C878C1FAD85207A5
:1001100001D330C830C101D504680C6070470000BD
:100120000023002400250026103A01D378C1FBD813
:10013000520700D330C100D50B6070471FB51FBDFB
:1001400010B510BD00F068F91146FFF7F7FF01F098
:100150004FFC00F080F903B4FFF7F2FF03BC00F09E
:1001600087F9000070B505460C46164602E00FCC34
:100170000FC5103E102EFAD2082E02D303CC03C5B1
:10018000083E042E07D301CC01C5361F03E02178B9
:100190002970641C6D1C761EF9D270BD074880471B
:1001A00007480047FEE7FEE7FEE7FEE7FEE7FEE75B
:1001B00004480549054A064B7047000081160008AF
:1001C000C10000080814002008240020081800209E
:1001D00008180020F8B5042A2CD3830712D00B7816
:1001E000491C0370401C521E83070BD00B78491C1E
:1001F0000370401C521E830704D00B78491C037007
:10020000401C521E8B079B0F05D0C91ADF0020230C
:10021000DE1B08C90AE0FFF7A5FFF8BD1D4608C9A7
:10022000FD401C46B4402C4310C0121F042AF5D2D6
:10023000F308C91A521EF0D40B78491C0370401CF5
:10024000521EEAD40B78491C0370401C012AE4D4E6
:1002500009780170F8BD01E004C0091F0429FBD230
:100260008B0701D50280801CC90700D0027070473F
:1002700000290BD0C30702D00270401C491E02297E
:1002800004D3830702D50280801C891EE3E7002285
:10029000EEE70022DFE70378C278194643781206BA
:1002A0001B0219438378C0781B04194311430902C8
:1002B000090A000608437047002203098B422CD329
:1002C000030A8B4211D300239C464EE003460B43A6
:1002D0003CD4002243088B4231D303098B421CD308
:1002E000030A8B4201D394463FE0C3098B4201D3FA
:1002F000CB01C01A524183098B4201D38B01C01A32
:10030000524143098B4201D34B01C01A52410309A8
:100310008B4201D30B01C01A5241C3088B4201D357
:10032000CB00C01A524183088B4201D38B00C01A04
:10033000524143088B4201D34B00C01A5241411A2B
:1003400000D201465241104670475DE0CA0F00D00E
:100350004942031000D34042534000229C46030907
:100360008B422DD3030A8B4212D3FC22890112BA8D
:10037000030A8B420CD3890192118B4208D3890165
:1003800092118B4204D389013AD0921100E089097D
:10039000C3098B4201D3CB01C01A524183098B425E
:1003A00001D38B01C01A524143098B4201D34B0147
:1003B000C01A524103098B4201D30B01C01A5241AA
:1003C000C3088B4201D3CB00C01A524183088B4231
:1003D00001D38B00C01A5241D9D243088B4201D3BA
:1003E0004B00C01A5241411A00D2014663465241A5
:1003F0005B10104601D34042002B00D549427047A4
:1004000063465B1000D3404201B50020C046C046A1
:1004100002BD704770477047754600F025F8AE463C
:10042000050069465346C008C000854618B020B58F
:10043000FFF7BEFE60BC00274908B6460026C0C5CF
:10044000C0C5C0C5C0C5C0C5C0C5C0C5C0C5403D8C
:1004500049008D46704710B50446C046C046204648
:10046000FFF779FE10BD000000487047A813002078
:1004700001491820ABBEFEE72600020070470000CD
:10048000FEB500240D46062838D006DC030001F036
:1004900057FA0535353510243500FD282ED002DCFD
:1004A000F0282BD120E04021FE2825D0FF2825D19F
:1004B0001DE0134E00246F46305D0A21FFF7FCFE5D
:1004C00030313955641CE4B20C2CF5D30C2269464A
:1004D0002846FFF77FFE0C2410E006242246094937
:1004E0002846FFF777FE09E01120087005E000209C
:1004F00029706870022401E0297001242046FEBDA5
:10050000E8F7FF1F38240008F8B502781346803B4F
:100510001F2B02D800F0FEF8F8BD0A7007784C1CBB
:10052000421C0025FF217648764E3B0001F008FA78
:100530001E101821308794B1E3CC3640E3E3E3E3A7
:10054000E3454A4F5E6C8285E3E3E3E3E3E367E37D
:100550001078611CFFF794FF6B4920704018F8BDBC
:100560001078002822D0012820D021706648401E33
:10057000AFE01578002D05D0012D04D000252570A1
:100580003046A6E001250121017000F038FCF6E7B5
:10059000057000F033FC257001209AE05078117846
:1005A0000002084318214843401EFDD12570DDE7B5
:1005B00001206070257002208BE02146104600F07B
:1005C00043FB86E02146104600F00EFB81E01778E1
:1005D000511C002F01D1FF270137384601F026F8C2
:1005E000FF1D2570F8080004801972E011788A0751
:1005F000920F521C49070276C90F4176BFE7214688
:10060000104600F08DF864E02170012113780C464B
:10061000521C0AE01078521C8006800E00D1402047
:10062000C01DC00812180918491C5B1EF2D208042C
:1006300020434EE010782170D5E72170A0E71178B3
:100640000173937857781902394301821179D2786E
:100650000902114341824CE000782146012814D060
:100660001346521C1078521C002808D01778521CD0
:10067000BC0701D5FC0600D5121D401EF6D1D01ACC
:100680000D7000044D70801C23E0104600F088F8C7
:100690001FE0007817462146012809D00D704D70E3
:1006A000A5700320F978194A890705D5104310E091
:1006B000104600F007FAF5E7B9787B78090219438C
:1006C00089048918084304E00078012803D02170C8
:1006D0000F488019F8BD1746501CFFF7DCFD39792B
:1006E0000002000A0906084300906946002000F055
:1006F000D7FC2570ECE7203CE1773046F8BD0000E0
:100700004C03002001000100020002000000040070
:1007100001000500FF20087000487047010001003B
:10072000F3B583B000220A70491C0125009504919D
:100730000178441C019129E02778641CB806800EDA
:1007400000D14020C01DC608380607D50920C006C4
:100750000168032212029143016001E000F03AFBBC
:1007600021463846049A00F051FC0198002801D136
:1007700000F030FB380606D50498801904900098E4
:100780008019009001E0A419AD196D1C0198401E5C
:100790000190401CD0D100992804084305B0F0BD59
:1007A000F0B589B00890044600208D1C0391C34920
:1007B00002900870049005906678A41C002E6FD0FB
:1007C0002778641CB9076CD50499002935D0BC483A
:1007D000008A01901120384001280FD1694638461F
:1007E00000F05EFC02281AD10199491E0191491CB2
:1007F00003D0B24909780029F0D012E169460E20F1
:1008000000F04EFC022808D10199491E0191491CB3
:1008100003D0AA4909780029F0D0002104910128C9
:10082000EBD1009929700099090A69700099090CA7
:10083000A9700099090EE9702D1DF90658D52046BA
:10084000FFF729FDE1780002000A09060843079036
:100850009B48241D408A0690F80715D09848008AC6
:1008600001900021384600F01BFC022802D001282C
:10087000C3D109E00199491E0191491CBDD08F499E
:1008800009780029EDD0CCE08D48008A01906946B6
:10089000384600F005FC022804D001281CD10BE0EA
:1008A000E0E064E00199491E0191491C14D083499C
:1008B00009780029EBD00FE08149009A496911407D
:1008C000079A914208D00699491E0691491C03D007
:1008D0007A4909780029D7D07949009A49691140A5
:1008E000079A914201D01021084301281AD13CE017
:1008F0007349098A0191F90718D00499002934D164
:100900000021384600F0CCFB022802D0012809D192
:1009100009E00199491E0191491C03D067490978F2
:100920000029EDD07DE0012104911EE069463846A2
:1009300000F0B6FB022802D0012872D109E001992B
:10094000491E0191491C6CD05C4909780029EDD001
:1009500067E0009929700099090A69700099090CEB
:10096000A9700099090EE9702D1D00214DE0049831
:10097000002823D05248008A019069460E2000F0DA
:100980008FFB022802D001284BD109E00199491EB2
:100990000191491C45D0494909780029EDD040E032
:1009A000009828700098000A68700098000CA870E1
:1009B0000098000EE87000202D1D04902046FFF7DF
:1009C0006AFCE1780002000A09060843241D009031
:1009D000B90603D53A494861012017E03848008A32
:1009E00001906946384600F05BFB022802D00128DE
:1009F00017D109E00199491E0191491C11D02F49D5
:100A000009780029EDD00CE0012105910299491CDB
:100A100002912A490978002903D1761E00D0CFE639
:100A20000AE0002E08D02178641C8A0701D5C90687
:100A300000D5241D761EF4E7012832D1049900293F
:100A40001ED01F481D4F068A69460E2000F028FB65
:100A5000022802D0012824D105E0761E21D339785E
:100A60000029F1D01DE0009929700099090A6970E8
:100A70000099090CA9700099090EE9702D1D10E06C
:100A8000059900290DD00E480C4F068A00210E2032
:100A900000F006FB022804D1761E02D33978002923
:100AA000F4D0039A02991170039948700898039939
:100AB000201A0004691A084309B0F0BD470000205D
:100AC0004C030020F3B583B00025CE1C02914449AD
:100AD000024628460D70917853780C02D21C1C43B4
:100AE00073D01178521C0091039289075DD500994B
:100AF000C90737D03B48078A0021009800F0D0FA98
:100B0000022802D0012860D12CE07F1E5DD3344939
:100B100009780029F0D058E0002C04D10098C007D3
:100B200001D00E2000902F48078A01A9009800F0FC
:100B3000B7FA022802D0012847D106E07F1E44D32D
:100B4000274909780029F0D03FE0019931700199D7
:100B50006D1C090A71700199090CB1700199090E97
:100B6000F170361D641ED7D22FE00398FFF793FB78
:100B700003990002C978000A090608430190039806
:100B8000001D03901748078A01A9009800F088FA11
:100B9000022802D0012818D106E07F1E15D3104983
:100BA00009780029F0D010E06D1C641EDDD20D48DC
:100BB0000B4F048A00210E2000F072FA022804D1A3
:100BC000641E02D339780029F4D002990D70029A7C
:100BD000290A517002998870029805B0301AF0BD48
:100BE000470000204C030020F8B50C460546FFF7EF
:100BF00052FB0102E878090A0006104F014307D0B2
:100C00000F4800260F4D814205D30120687010E087
:100C1000FF2020700FE00A486E70401E0818FFF792
:100C20004BFB012804D90321401CFFF745FB00E0E2
:100C30000120686026703846F8BD000001000400FD
:100C4000005125024C030020F3B506460578447890
:100C500081B0801CFFF71FFB070270793F0A000676
:100C60000743294EE00708D0E90704200029B18A8C
:100C700001D0014300E08143B182A00708D5A90754
:100C800010200029B18A01DA014300E08143B182DA
:100C9000200602D5E80901F017FB002F22D001221F
:100CA000E00704D0308A4007C00FA84217D1A00740
:100CB00005D5308A6B08C006C00F98420FD1600777
:100CC00001D5A8080BD1A00601D5680907D12006D7
:100CD00008D5308AEB098007C00F984202D0401A2D
:100CE0009042DDD3308A318A4007C00FC906C90F50
:100CF00049000843318A8907C90FC901084302998D
:100D000008700248FEBD0000000000480100060017
:100D10007D2189014843401EFDD1704710B5007800
:100D2000D038072807D90448406804498001401892
:100D30000349FFF7E9FB10BD4800002068030020CD
:100D4000681300200920C006818A04229143818211
:100D500070470920C006818A04229143818270472E
:100D60000920C006818A042211438182704709202C
:100D7000C006818A04221143818270470920C0067F
:100D8000008AC006C00F70470922D206918A10233C
:100D9000C0079943C00E0143918270470922D206D1
:100DA000918A1023C0079943C00E01439182704776
:100DB0000920C006016803221202914301607047B6
:100DC0000921C9060868032212029043FF3001304E
:100DD000086070470921C90608680322120290437F
:100DE000FF300130086070470921C90608680322F6
:100DF00012029043FF30013008607047704770B5B1
:100E00000924E406A08A04210843A082A08A1021B4
:100E10000843A082A08A0225A843A0826420FFF78D
:100E200077FFA08A2843A08270BD0000F3B5044676
:100E300081B000250120FFF7A7FFFFF783FF724F66
:100E40007868401EFDD1FFF78BFF7868401EFDD10A
:100E5000E0B2FFF799FFFFF775FF7868401EFDD1FC
:100E6000FFF77EFF7868401EFDD12E196508E8B2B5
:100E7000FFF78AFFFFF766FF7868401EFDD1FFF796
:100E80006FFF7868401EFDD17619A508E8B2FFF71C
:100E90007BFFFFF757FF7868401EFDD1FFF760FF2B
:100EA0007868401EFDD1E4087519E0B2FFF76CFFC9
:100EB000FFF748FF7868401EFDD1FFF751FF7868C3
:100EC000401EFDD12819C0B2FFF75EFFFFF73AFFC1
:100ED0007868401EFDD1FFF743FF7868401EFDD1C2
:100EE000FFF752FFFFF72EFF7868401EFDD1FFF796
:100EF00037FF7868401EFDD10120FFF745FFFFF75F
:100F000021FF7868401EFDD1FFF72AFF7868401E58
:100F1000FDD10926F60630680321090288433060B6
:100F20003C7E002C0BD0FFF70DFF7868401EFDD1F2
:100F3000FFF716FF7868401EFDD1641EF3D1FFF75E
:100F400001FF7868401EFDD1308AC006C40FFFF74C
:100F500007FF7868401EFDD1FFF7F4FE7868401E59
:100F6000FDD1308AC006C50FFFF7FAFE7868401E33
:100F7000FDD16D002543FFF7E5FE7868401EFDD1E9
:100F8000308AC006C40FFFF7EBFE7868401EFDD123
:100F9000A000284300903C7E002C0BD0FFF7D2FE2F
:100FA0007868401EFDD1FFF7DBFE7868401EFDD15A
:100FB000641EF3D1FFF704FF0026029C2025E0B257
:100FC000FFF7E2FEFFF7BEFE7868401EFDD1FFF797
:100FD000C7FE7868401EFDD1361964086D1EEED13B
:100FE000F0B2FFF7D1FEFFF7ADFE7868401EFDD1ED
:100FF000FFF7B6FE7868401EFDD1FFF7E1FE012045
:10100000FFF7C2FE0098FEBD4C030020F8B5840631
:1010100017460E46A40E00D1402400061ED43AE026
:101020000026082515E0FFF794FE1C484068401E86
:10103000FDD1FFF7A3FE0090FFF799FE1748406827
:10104000401EFDD100997008CE010643641E6D1E3E
:1010500001D0002CE7D1EE403E707F1C002CDFD188
:10106000F8BD35780827761C12E0E8B2FFF796FE47
:10107000FFF76FFE09484068401EFDD1FFF777FE7D
:1010800006484068401EFDD16D08641E7F1E02D0D8
:10109000002CEAD1F8BD002CE3D1F8BD4C030020B0
:1010A00010B5054A5278002A02D000F007F810BDAA
:1010B00000F016F910BD00004C030020F3B5054602
:1010C00083B00120FFF76AFEFFF743FEFFF74FFEF4
:1010D000E8B2FFF763FEFFF73CFEFFF748FE6C083F
:1010E000E0B2FFF75BFEFFF734FEFFF740FE2E197C
:1010F000AC08E0B2FFF752FEFFF72BFEFFF737FE1A
:101100003619EC08E0B2FFF749FEFFF722FEFFF7C1
:101110002EFE3019C0B2FFF741FEFFF71AFEFFF7AF
:1011200026FE0020FFF73AFEFFF713FEFFF71FFE33
:101130000120FFF733FEFFF70CFEFFF718FEFFF765
:1011400037FE6648047E002C05D0FFF702FEFFF74D
:101150000EFE641EF9D1FFF7FCFDFFF70FFE0446FB
:10116000FFF705FEFFF7F5FDFFF708FE0646FFF760
:10117000FEFD77002743FFF7ECFDFFF7FFFD044678
:10118000FFF7F5FDA6003E43012E10D0022E78D0C9
:10119000042E76D05148047E213405D0FFF7D9FDC6
:1011A000FFF7E5FD641EF9D1FFF71EFE90E0A807EA
:1011B0002FD5002720240097FFF7CBFDFFF7DEFD9A
:1011C0000190FFF7D4FD019900984018009078082D
:1011D000CF070743641EEFD1FFF7BBFDFFF7CEFD3E
:1011E0000446FFF7C4FD00996140C80700D00826F7
:1011F0000498002800D007603848047E002C05D0F1
:10120000FFF7A7FDFFF7B3FD641EF9D1FFF7ECFD73
:1012100024E03248047E002C05D0FFF79AFDFFF74A
:10122000A6FD641EF9D1FFF7DFFD049804680020D5
:1012300020270090E0B2FFF7B1FDFFF78AFDFFF72E
:1012400096FD00980019640800907F1EF2D1C0B28C
:10125000FFF7A4FDFFF77DFDFFF789FD280601D507
:101260001E4988601D48047B002C31D00020FFF708
:1012700095FDFFF76EFDFFF77AFD641EF9D127E0BB
:10128000FFE7164F787E002808D0A80706D521244E
:10129000FFF75FFDFFF76BFD641EF9D13C7E002C6C
:1012A00005D0FFF756FDFFF762FD641EF9D1FFF789
:1012B0009BFD787E00280BD0A80709D40020FFF7FB
:1012C0006DFD2124FFF745FDFFF751FD641EF9D1A7
:1012D0000120FFF763FDF0B205B0F0BD4C03002024
:1012E000F3B5044683B000250120FFF757FDFFF753
:1012F00030FDCD4F7868401EFDD1FFF738FD78688E
:10130000401EFDD1E0B2FFF749FDFFF722FD7868EE
:10131000401EFDD1FFF72BFD7868401EFDD12E1930
:101320006508E8B2FFF73AFDFFF713FD7868401E45
:10133000FDD1FFF71CFD7868401EFDD17619A50888
:10134000E8B2FFF72BFDFFF704FD7868401EFDD1E2
:10135000FFF70DFD7868401EFDD17619E508E8B26B
:10136000FFF71CFDFFF7F5FC7868401EFDD1FFF785
:10137000FEFC7868401EFDD17019C0B2FFF70EFD6B
:10138000FFF7E7FC7868401EFDD1FFF7F0FC7868B6
:10139000401EFDD1FFF702FDFFF7DBFC7868401E21
:1013A000FDD1FFF7E4FC7868401EFDD10120FFF776
:1013B000F5FCFFF7CEFC7868401EFDD1FFF7D7FCA7
:1013C0007868401EFDD1FFF7F3FC3D7E002D0BD069
:1013D000FFF7BFFC7868401EFDD1FFF7C8FC7868B6
:1013E000401EFDD16D1EF3D1FFF7B3FC7868401E9F
:1013F000FDD1FFF7C3FC0546FFF7B9FC7868401E36
:10140000FDD1FFF7A6FC7868401EFDD1FFF7B6FCC2
:101410000646FFF7ACFC7868401EFDD176002E43EF
:10142000FFF797FC7868401EFDD1FFF7A7FC054643
:10143000FFF79DFC7C484068401EFDD1AD00354360
:10144000012D16D0022D7DD0042D7BD0764E347E1A
:1014500021340BD0FFF77DFC7068401EFDD1FFF7F3
:1014600086FC7068401EFDD1641EF3D1FFF7BCFC02
:10147000D4E0A00744D5002620270096FFF769FC9A
:1014800069484068401EFDD1FFF778FC0190FFF7E6
:101490006EFC65484068401EFDD1019900984018D7
:1014A00000907008CE0706437F1EE7D1FFF751FC7E
:1014B0005D4F7868401EFDD1FFF760FC0190FFF79B
:1014C00056FC7868401EFDD1019900984840C0073D
:1014D00000D008250498002800D006603E7E002E2B
:1014E0000BD0FFF736FC7868401EFDD1FFF73FFCBC
:1014F0007868401EFDD1761EF3D1FFF775FC3CE005
:101500004948067E002E0CD00746FFF722FC78687B
:10151000401EFDD1FFF72BFC7868401EFDD1761EE2
:10152000F3D1FFF761FC04980668002020270090A3
:10153000F0B2FFF733FCFFF70CFC3B484068401E5D
:10154000FDD100E031E0FFF712FC37484068401E53
:10155000FDD100988019760800907F1EE8D1C0B2B6
:10156000FFF71CFCFFF7F5FB2F4E7068401EFDD106
:10157000FFF7FDFB7068401EFDD1200601D52A490A
:101580008860294E347B002C48D00020FFF706FCF1
:10159000FFF7DFFB7068401EFDD1FFF7E8FB7068C6
:1015A000401EFDD1641EF3D138E01F4F787E002825
:1015B0000ED0A0070CD52126FFF7CBFB7868401E84
:1015C000FDD1FFF7D4FB7868401EFDD1761EF3D124
:1015D0003E7E002E0BD0FFF7BCFB7868401EFDD18D
:1015E000FFF7C5FB7868401EFDD1761EF3D1FFF7EB
:1015F000FBFB787E002811D0A0070FD40020FFF756
:10160000CDFB2124FFF7A5FB7868401EFDD1FFF735
:10161000AEFB7868401EFDD1641EF3D10120FFF7B8
:10162000BDFBE8B205B0F0BD4C030020F8B50025C5
:101630000E4607462C461CE0002C02D135780824C3
:10164000761CE8070C48818A02D01022114301E081
:10165000102291438182FFF77CFB08484068401EBE
:10166000FDD1FFF784FB05484068401EFDD16D08A1
:10167000641E7F1EE0D2F8BD000000484C0300202D
:1016800008B505200002009019491120086019488A
:10169000016801221143016001688907FCD5416896
:1016A0000322D2039143416041680F229204914387
:1016B0000522D20489184160C1690122D206114372
:1016C000C1610D490A6820231A430A6041688908EC
:1016D0008900891C41600168DA04114301600168D6
:1016E0008901FCD541680907890F0229FAD108BD93
:1016F0000020024000100240006C00400448018AB3
:101700004908490001820349012008707047000020
:101710000010004000000020F8B5824E08E070681C
:101720000121C903884370602807000F00F018FAF0
:1017300075682804F3D468057ED570680121890294
:1017400088437060306978490840306175480027E7
:1017500040380760016801600168090909010160FA
:101760000168032252029143FF31FF3102310160CF
:10177000036881158B43036003686C4C1B1903607D
:1017800047604368436043681B091B015B1C43605F
:1017900043681343436043688B43436043681B19AA
:1017A000436087604368836083681B091B019B1C3F
:1017B000836083689343836083688B43836083681B
:1017C0001B198360C7604368C360C3681B091B01A2
:1017D000DB1CC360C3681343C360C2688A43C26032
:1017E000C1680919C160524CFF21F1312046FEF752
:1017F00050FD2020208067806020A080E088E313D7
:101800001843E080E1881F20800281435A11891823
:10181000E180A02121816781E021A181E189194333
:10182000E181E18981438918E181FF212131218210
:101830006782FF21613100E03CE0A182E18A194327
:10184000E182E18A81438918E182FF21A13121836C
:101850006783FF21E131A183E18B4904490CE183D6
:10186000E18B8143D0000818E083AC213148FEF7BA
:1018700010FD304F304838603049FF381EC971388C
:101880001EC04021F9747C38C17001228274C17479
:101890002030C170AC30786140307862403078637D
:1018A00080307864F068C009C001F060F068802181
:1018B0000843F060680404D57068012189038843F7
:1018C000706028050ED571680120C00281437160E7
:1018D000F168490604D00021F1603168814331602C
:1018E00000F03AFCA80404D571680120400381434C
:1018F0007160E80406D570680121090388437060AF
:1019000000F05AFAA80504D57068012149028843FD
:101910007060E80504D57068FF210131884370606C
:10192000F8BD0000405C00400700FFFF20300000D1
:1019300000600040500000204C02002048230008B6
:1019400030B47446641E2578641CAB4200D21D4638
:10195000635D5B00E31830BC1847000070B50446B7
:1019600016484079042826DD154D202802D021286C
:1019700021D10FE02046FEF78EFC0002E178000A3C
:101980000906084328602079287160796871A07978
:10199000A87110E0287820702888000A60702868F4
:1019A000000CA0702868000EE0702879207168791A
:1019B0006071A879A071002070BD00005000002067
:1019C0000400002030B591B00C4605464021684621
:1019D000FEF75FFC224629466846FEF7FBFB022322
:1019E00040226946012000F0F3F911B030BD00003B
:1019F0002548416901225204114341610920C00672
:101A000002680C218A43121D0260838802229343DC
:101A1000838083680B438360C3688B431B1DC36053
:101A2000818A11438182026830218A431032026028
:101A3000838804229343838083680B438360C36855
:101A40008B431033C360818A114381820268032172
:101A500009028A43FF3201320260838810229343D5
:101A6000838083680B438360C3688B43FF330133F8
:101A7000C360818A1143818200F018F800F078FB7E
:101A800000F000FCFCE7000000100240C36A1B0CE1
:101A90001B040B43C3624263416A090C090441629F
:101AA000818A0122114381827047000010B52949C3
:101AB000486901225204104348610920C0060268A7
:101AC00092089200921C0260828852085200828022
:101AD000826803231A438260C2689A43521CC26020
:101AE000026A12091201921C0262C86901221043A3
:101AF000C8611A4918480881480603880424A3438A
:101B0000038003888024234303807D23DB00C3629A
:101B100003881024A34303800023838003818381EF
:101B2000038B702423430383038B08242343038301
:101B30000B880224A3430B800B8813430B80FF21E7
:101B4000F5314163818A114381820188114301800B
:101B500010BD000000100240BF1200002000004035
:101B6000F8B50546810033480E183468200457D56F
:101B7000314F002D06D0012D24D0022D22D0032D6F
:101B80004ED11FE0200511D52B4B00202B4960338F
:101B900004E0C21812780A54401CC0B2FA889205B8
:101BA000920D8242F5D800F003FA02E0002000F026
:101BB000ABF823481F49204008600321002000F0B3
:101BC000BDF92DE0284600F09FF81D492046084049
:101BD0003060012D02D0022D22D119E000201949D8
:101BE000194A07E0194B0F681B5CBF01BF183B5433
:101BF000401CC0B2104BDB899B059B0D8342F1D882
:101C00000868401C086008688006800E086007E0CD
:101C1000F88A0E49C2B201234031284600F0D8F8B4
:101C2000200605D50A4804403460284600F040F9F3
:101C3000F8BD0000005C004000600040540000203F
:101C40008F0F000048000020680300207C01002066
:101C50000F8F0000F8B52B4E0021F0880090020A8B
:101C60003046054680350C462F6900681300FFF7A3
:101C700067FE083805090D3838182D38E9680DE079
:101C80000C7830E0390038D04C882CE00098A969F5
:101C9000C0B2814231D96969800009580029EFD169
:101CA0002BE00A210170316806204870E96830682D
:101CB0000622801C891CFEF78DFAE8683168407C9A
:101CC0000872002031680A24487209E0002F00D011
:101CD0007C8839462246FEF77DFA31680720487035
:101CE0003168002909D07089A04200D80446E2B2C8
:101CF0000123002000F06CF8F8BD002000F030F95E
:101D0000F8BD000050000020284970B502015218AB
:101D1000274B0C32002806D0012814D0022822D0EC
:101D200003283ED12EE0224C0021603405E00D193D
:101D30002D7896687554491CC9B2DD88AD05AD0D86
:101D40008D42F4D82DE01A4C0021E03405E00D1945
:101D50002D7896687554491CC9B2DD89AD05AD0D65
:101D60008D42F4D81DE00021124C05E00D192D78AC
:101D700096687554491CC9B2DD8AAD05AD0D8D421A
:101D8000F4D80EE00B4C0021803405E00D192D78BD
:101D900096687554491CC9B2DD8BAD05AD0D8D42F9
:101DA000F4D8032100F0CAF870BD000050000020F4
:101DB00000600040606100400448016804229143D3
:101DC000016027218902016070470000405C0040EB
:101DD000FFB5334B840081B0E31800931E68314B8C
:101DE0000401E518EB7C934200D91346CF18D21AB0
:101DF000EF602A745C1CB2066408920F6B74022AAE
:101E00004BD1002808D0012817D0022828D0032859
:101E100037D0012005B0F0BD234D6B8000220AE0D1
:101E200055006F187E783F7836023E431E4FED19FD
:101E30002E84521CD2B2A242F2D31B4A40255581B5
:101E400000220BE055006F187E783F7836023E4343
:101E5000154F8037ED192E84521CD2B2A242F1D315
:101E6000114A53820022114E09E053005F187D7819
:101E70003F782D023D439B191D84521CD2B2A242D1
:101E8000F3D3032100F082F80498022805D10098CA
:101E900000688006800F0228F9D10020BAE7000010
:101EA000005C0040500000200060004000610040E5
:101EB00070B50546010111480C18207C002812D18C
:101EC000A07C002802D0607C40280CD0032128464A
:101ED00000F034F8094C8034206A002802D0804792
:101EE0000020206270BD0221002000F04FF8227C0B
:101EF00001232846E168FFF76BFF70BD500000200A
:101F000010B50B48C16880221143C160C168094AFD
:101F1000C909127AC9015206520E1143C16006481E
:101F2000C289818901208007FFF7B0FD10BD000044
:101F3000405C0040F0000020342300088200054887
:101F400010180268044B09031A404A4003490A4327
:101F500002607047005C00408FBF0000808000007E
:101F6000014600B54006400E05D009060AD50121FC
:101F700000F00CF800BD0121002000F007F801215D
:101F8000002000E00121FFF7D9FF00BD82000548D5
:101F900010180268044B09011A404A4003490A43D9
:101FA00002607047005C0040BF8F0000808000002E
:101FB000F8B5624804790146A707CD880E89BF0F9E
:101FC0004979EAB2012F48D1037940895B069B0F1A
:101FD000002E02D0012E40D13DE0584CE488240A66
:101FE000062901D1222C02D0012B08D035E018227D
:101FF0005349182800D91046C2B201230CE00B0047
:10200000FFF79EFC0C2B240E172B2B2B2B2B1E07C4
:10201000112B4C48447008E00020FFF7D9FE13E074
:102020004848417807E04748827001230022114662
:10203000F2E744488178017001231A464149EBE7F1
:102040003E493E48AC3141610120F8BD3B49012386
:10205000C2B2AC31E0E7012B0FD038480B00044688
:10206000007A80344006400EFFF76AFC0C2A423C9E
:10207000383C19273C2C3234363C002806D0210647
:1020800004D52E490123C2B2EC3104E02B48EC30D8
:10209000FFF764FC32E00020FFF79AFE42E0274899
:1020A0006906490EA0300172002201231146104634
:1020B000FFF78EFE2448206234E0FFF7CBFD31E0CD
:1020C000207F00E0607F6946012308800222E2E76A
:1020D000627713E0A07FF6E7A2770FE0022F01D02E
:1020E000012D03D00020FFF73BFF1BE0012004E09F
:1020F000022F07D0012DF5D10020E0770123002227
:102100001146C8E7F2B20228ECD210481049002A62
:102110000AD09300181803680B400360032110468F
:10212000FFF70CFF0020F8BD02680A40026001685A
:10213000084A1140016003210020F1E7500000200F
:102140006A2300080C000020011F0008005C00400A
:102150008F0F00000F8F0000044801680822114310
:10216000016001680422114301607047405C004037
:1021700038B53C4B3C4C0020195C0907090F092974
:1021800001D9373100E03031820012191172195C27
:102190000909092901D9373100E03031401CC0B2AA
:1021A00091720C28E8D33149486B01221204104384
:1021B0004863486B8003FCD5086B8022904308631A
:1021C0000A690120C00502430A610A6982430A6163
:1021D000CA690243CA6126488269C413A243826164
:1021E0000025244B0095009A521C00929A42FAD383
:1021F000CA690123DB061A43CA611F494A680323DF
:102200001B079A4301235B07D2184A600A684023E0
:102210001A430A600A6820231A430A6001680122EF
:1022200011430160056041684905FCD545600169BD
:10223000124A1140016101682143016001680122D5
:1022400012031143016001685210114301600168DB
:102250005210114301608169214381610849500591
:10226000086038BDACF7FF1F0F00002000100240CF
:10227000405C0040FFFF0000006C00400700FFFFD3
:1022800000E100E010B50D4C60682168884212D072
:1022900060680B49800140180A49FEF73FFD6068FD
:1022A000401C402800D10020606040210548FFF715
:1022B00089FB012010BD002010BD00004800002057
:1022C0006803002068130020F8B5174D174E044628
:1022D00029463046FEF7AAFD0020401C6428FCD3A6
:1022E000134F124839461830FEF7A0FD0020401C5D
:1022F0006428FCD329463046FEF798FD0020401C98
:102300006428FCD3094839461830FEF78FFD0920B0
:10231000E107C00602220029818A01D0114300E0B2
:1023200091438182F8BD00000CED00E0C50C000077
:102330000700FA05E803F401102748261027881340
:1023400010273200409C204E5823000882230008AA
:10235000282400080400000012010002EF020140DE
:1023600051C201F00002010203010600FF0901A1B0
:10237000010902150025FF750895408102090391A6
:1023800002C009026B0003010080FA090400000288
:102390000300000009211101000122180007058136
:1023A0000340000107050103400001080B01020280
:1023B00002010009040100010202010005240010CD
:1023C000010524010001042402020524060001077E
:1023D00005880310000109040200020A000000073A
:1023E00005820240000107050202400001040309C2
:1023F00004140343004D005300490053002D0044D2
:10240000004100500022035A004D0065006C006539
:102410000063002E0043004D005300490053002D7F
:102420000044004100500000ED230008F1230008A3
:10243000052400080F000020322E302E300000004E
:102440006024000800000020500000000401000883
:10245000B024000850000020B8230000200100082C
:102460000000000000000000000000000000003834
:102470000353004E002E003000300030003000309A
:1024800000300030003000300030003000300030CC
:1024900000300030003000300030003000300030BC
:1024A000003000300030000000000000000000009C
:04000005080000C12E
:00000001FF
